{
  "_format": "hh-sol-artifact-1",
  "contractName": "ACOM",
  "sourceName": "contracts/ACOM.sol",
  "abi": [
    {
      "inputs": [],
      "stateMutability": "nonpayable",
      "type": "constructor"
    },
    {
      "anonymous": false,
      "inputs": [
        {
          "indexed": true,
          "internalType": "address",
          "name": "owner",
          "type": "address"
        },
        {
          "indexed": true,
          "internalType": "address",
          "name": "spender",
          "type": "address"
        },
        {
          "indexed": false,
          "internalType": "uint256",
          "name": "value",
          "type": "uint256"
        }
      ],
      "name": "Approval",
      "type": "event"
    },
    {
      "anonymous": false,
      "inputs": [
        {
          "indexed": true,
          "internalType": "address",
          "name": "from",
          "type": "address"
        },
        {
          "indexed": true,
          "internalType": "address",
          "name": "to",
          "type": "address"
        },
        {
          "indexed": false,
          "internalType": "uint256",
          "name": "value",
          "type": "uint256"
        }
      ],
      "name": "Transfer",
      "type": "event"
    },
    {
      "inputs": [
        {
          "internalType": "address",
          "name": "owner",
          "type": "address"
        },
        {
          "internalType": "address",
          "name": "spender",
          "type": "address"
        }
      ],
      "name": "allowance",
      "outputs": [
        {
          "internalType": "uint256",
          "name": "",
          "type": "uint256"
        }
      ],
      "stateMutability": "view",
      "type": "function"
    },
    {
      "inputs": [
        {
          "internalType": "address",
          "name": "spender",
          "type": "address"
        },
        {
          "internalType": "uint256",
          "name": "amount",
          "type": "uint256"
        }
      ],
      "name": "approve",
      "outputs": [
        {
          "internalType": "bool",
          "name": "",
          "type": "bool"
        }
      ],
      "stateMutability": "nonpayable",
      "type": "function"
    },
    {
      "inputs": [
        {
          "internalType": "address",
          "name": "account",
          "type": "address"
        }
      ],
      "name": "balanceOf",
      "outputs": [
        {
          "internalType": "uint256",
          "name": "",
          "type": "uint256"
        }
      ],
      "stateMutability": "view",
      "type": "function"
    },
    {
      "inputs": [
        {
          "internalType": "address",
          "name": "newPool",
          "type": "address"
        }
      ],
      "name": "changeLiquidityPool",
      "outputs": [],
      "stateMutability": "nonpayable",
      "type": "function"
    },
    {
      "inputs": [],
      "name": "decimals",
      "outputs": [
        {
          "internalType": "uint8",
          "name": "",
          "type": "uint8"
        }
      ],
      "stateMutability": "view",
      "type": "function"
    },
    {
      "inputs": [
        {
          "internalType": "address",
          "name": "spender",
          "type": "address"
        },
        {
          "internalType": "uint256",
          "name": "subtractedValue",
          "type": "uint256"
        }
      ],
      "name": "decreaseAllowance",
      "outputs": [
        {
          "internalType": "bool",
          "name": "",
          "type": "bool"
        }
      ],
      "stateMutability": "nonpayable",
      "type": "function"
    },
    {
      "inputs": [],
      "name": "getLiquidityPool",
      "outputs": [
        {
          "internalType": "address",
          "name": "",
          "type": "address"
        }
      ],
      "stateMutability": "view",
      "type": "function"
    },
    {
      "inputs": [
        {
          "internalType": "address",
          "name": "spender",
          "type": "address"
        },
        {
          "internalType": "uint256",
          "name": "addedValue",
          "type": "uint256"
        }
      ],
      "name": "increaseAllowance",
      "outputs": [
        {
          "internalType": "bool",
          "name": "",
          "type": "bool"
        }
      ],
      "stateMutability": "nonpayable",
      "type": "function"
    },
    {
      "inputs": [],
      "name": "name",
      "outputs": [
        {
          "internalType": "string",
          "name": "",
          "type": "string"
        }
      ],
      "stateMutability": "view",
      "type": "function"
    },
    {
      "inputs": [],
      "name": "symbol",
      "outputs": [
        {
          "internalType": "string",
          "name": "",
          "type": "string"
        }
      ],
      "stateMutability": "view",
      "type": "function"
    },
    {
      "inputs": [],
      "name": "totalSupply",
      "outputs": [
        {
          "internalType": "uint256",
          "name": "",
          "type": "uint256"
        }
      ],
      "stateMutability": "view",
      "type": "function"
    },
    {
      "inputs": [
        {
          "internalType": "address",
          "name": "to",
          "type": "address"
        },
        {
          "internalType": "uint256",
          "name": "amount",
          "type": "uint256"
        }
      ],
      "name": "transfer",
      "outputs": [
        {
          "internalType": "bool",
          "name": "",
          "type": "bool"
        }
      ],
      "stateMutability": "nonpayable",
      "type": "function"
    },
    {
      "inputs": [
        {
          "internalType": "address",
          "name": "from",
          "type": "address"
        },
        {
          "internalType": "address",
          "name": "to",
          "type": "address"
        },
        {
          "internalType": "uint256",
          "name": "amount",
          "type": "uint256"
        }
      ],
      "name": "transferFrom",
      "outputs": [
        {
          "internalType": "bool",
          "name": "",
          "type": "bool"
        }
      ],
      "stateMutability": "nonpayable",
      "type": "function"
    },
    {
      "inputs": [
        {
          "internalType": "address",
          "name": "recipient",
          "type": "address"
        },
        {
          "internalType": "uint256",
          "name": "amount",
          "type": "uint256"
        }
      ],
      "name": "transferFromLiquidity",
      "outputs": [],
      "stateMutability": "nonpayable",
      "type": "function"
    },
    {
      "inputs": [
        {
          "internalType": "address",
          "name": "recipient",
          "type": "address"
        },
        {
          "internalType": "uint256",
          "name": "amount",
          "type": "uint256"
        }
      ],
      "name": "transferFromTreasury",
      "outputs": [],
      "stateMutability": "nonpayable",
      "type": "function"
    },
    {
      "inputs": [
        {
          "internalType": "address",
          "name": "newOwner",
          "type": "address"
        }
      ],
      "name": "transferOwnership",
      "outputs": [],
      "stateMutability": "nonpayable",
      "type": "function"
    }
  ],
  "bytecode": "0x60806040523480156200001157600080fd5b5060408051808201825260048082526341434f4d60e01b6020808401828152855180870190965292855284015281519192916200005191600391620001d5565b50805162000067906004906020840190620001d5565b5050600580546001600160a01b0319163317905550620000ae3060646200009c6b204fce5e3e25026110000000605a620002f7565b620000a89190620002d6565b6200010e565b600554620000da906001600160a01b031660646200009c6b204fce5e3e25026110000000600a620002f7565b600680546001600160a01b03199081163017909155600554600780549092166001600160a01b03919091161790556200036c565b6001600160a01b038216620001405760405162461bcd60e51b815260040162000137906200027b565b60405180910390fd5b6200014e60008383620001d0565b8060026000828254620001629190620002bb565b90915550506001600160a01b038216600081815260208190526040808220805485019055517fddf252ad1be2c89b69c2b068fc378daa952ba7f163c4a11628f55a4df523b3ef90620001b6908590620002b2565b60405180910390a3620001cc60008383620001d0565b5050565b505050565b828054620001e39062000319565b90600052602060002090601f01602090048101928262000207576000855562000252565b82601f106200022257805160ff191683800117855562000252565b8280016001018555821562000252579182015b828111156200025257825182559160200191906001019062000235565b506200026092915062000264565b5090565b5b8082111562000260576000815560010162000265565b6020808252601f908201527f45524332303a206d696e7420746f20746865207a65726f206164647265737300604082015260600190565b90815260200190565b60008219821115620002d157620002d162000356565b500190565b600082620002f257634e487b7160e01b81526012600452602481fd5b500490565b600081600019048311821515161562000314576200031462000356565b500290565b6002810460018216806200032e57607f821691505b602082108114156200035057634e487b7160e01b600052602260045260246000fd5b50919050565b634e487b7160e01b600052601160045260246000fd5b610bb2806200037c6000396000f3fe608060405234801561001057600080fd5b50600436106101005760003560e01c806370a0823111610097578063a69cf2cf11610066578063a69cf2cf146101fe578063a9059cbb14610211578063dd62ed3e14610224578063f2fde38b1461023757610100565b806370a08231146101bb57806395d89b41146101ce57806395ddbe89146101d6578063a457c2d7146101eb57610100565b8063313ce567116100d3578063313ce5671461016b57806339509351146101805780633b8b679f1461019357806348a490fb146101a857610100565b806306fdde0314610105578063095ea7b31461012357806318160ddd1461014357806323b872dd14610158575b600080fd5b61010d61024a565b60405161011a9190610883565b60405180910390f35b61013661013136600461083b565b6102dc565b60405161011a9190610878565b61014b6102fe565b60405161011a9190610b06565b610136610166366004610800565b610304565b610173610332565b60405161011a9190610b0f565b61013661018e36600461083b565b610337565b6101a66101a136600461083b565b610363565b005b6101a66101b636600461083b565b6103b1565b61014b6101c93660046107ad565b6103e6565b61010d610405565b6101de610414565b60405161011a9190610864565b6101366101f936600461083b565b610423565b6101a661020c3660046107ad565b61046b565b61013661021f36600461083b565b6104dd565b61014b6102323660046107ce565b6104f5565b6101a66102453660046107ad565b610520565b60606003805461025990610b41565b80601f016020809104026020016040519081016040528092919081815260200182805461028590610b41565b80156102d25780601f106102a7576101008083540402835291602001916102d2565b820191906000526020600020905b8154815290600101906020018083116102b557829003601f168201915b5050505050905090565b6000806102e7610592565b90506102f4818585610596565b5060019392505050565b60025490565b60008061030f610592565b905061031c85828561064a565b610327858585610694565b506001949350505050565b601290565b600080610342610592565b90506102f481858561035485896104f5565b61035e9190610b1d565b610596565b6005546001600160a01b031633146103965760405162461bcd60e51b815260040161038d90610942565b60405180910390fd5b6005546103ad906001600160a01b03168383610694565b5050565b6005546001600160a01b031633146103db5760405162461bcd60e51b815260040161038d90610942565b6103ad308383610694565b6001600160a01b0381166000908152602081905260409020545b919050565b60606004805461025990610b41565b6007546001600160a01b031690565b60008061042e610592565b9050600061043c82866104f5565b90508381101561045e5760405162461bcd60e51b815260040161038d90610ac1565b6103278286868403610596565b6005546001600160a01b031633146104955760405162461bcd60e51b815260040161038d90610942565b6001600160a01b0381166104bb5760405162461bcd60e51b815260040161038d90610919565b600780546001600160a01b0319166001600160a01b0392909216919091179055565b6000806104e8610592565b90506102f4818585610694565b6001600160a01b03918216600090815260016020908152604080832093909416825291909152205490565b6005546001600160a01b0316331461054a5760405162461bcd60e51b815260040161038d90610942565b6001600160a01b0381166105705760405162461bcd60e51b815260040161038d90610919565b600580546001600160a01b0319166001600160a01b0392909216919091179055565b3390565b6001600160a01b0383166105bc5760405162461bcd60e51b815260040161038d90610a7d565b6001600160a01b0382166105e25760405162461bcd60e51b815260040161038d90610979565b6001600160a01b0380841660008181526001602090815260408083209487168084529490915290819020849055517f8c5be1e5ebec7d5bd14f71427d1e84f3dd0314c0f7b2291e5b200ac8c7c3b9259061063d908590610b06565b60405180910390a3505050565b600061065684846104f5565b9050600019811461068e57818110156106815760405162461bcd60e51b815260040161038d906109bb565b61068e8484848403610596565b50505050565b6001600160a01b0383166106ba5760405162461bcd60e51b815260040161038d90610a38565b6001600160a01b0382166106e05760405162461bcd60e51b815260040161038d906108d6565b6106eb838383610791565b6001600160a01b038316600090815260208190526040902054818110156107245760405162461bcd60e51b815260040161038d906109f2565b6001600160a01b0380851660008181526020819052604080822086860390559286168082529083902080548601905591517fddf252ad1be2c89b69c2b068fc378daa952ba7f163c4a11628f55a4df523b3ef90610782908690610b06565b60405180910390a361068e8484845b505050565b80356001600160a01b038116811461040057600080fd5b6000602082840312156107be578081fd5b6107c782610796565b9392505050565b600080604083850312156107e0578081fd5b6107e983610796565b91506107f760208401610796565b90509250929050565b600080600060608486031215610814578081fd5b61081d84610796565b925061082b60208501610796565b9150604084013590509250925092565b6000806040838503121561084d578182fd5b61085683610796565b946020939093013593505050565b6001600160a01b0391909116815260200190565b901515815260200190565b6000602080835283518082850152825b818110156108af57858101830151858201604001528201610893565b818111156108c05783604083870101525b50601f01601f1916929092016040019392505050565b60208082526023908201527f45524332303a207472616e7366657220746f20746865207a65726f206164647260408201526265737360e81b606082015260800190565b6020808252600f908201526e496e76616c6964206164647265737360881b604082015260600190565b60208082526017908201527f43616c6c6572206973206e6f7420746865206f776e6572000000000000000000604082015260600190565b60208082526022908201527f45524332303a20617070726f766520746f20746865207a65726f206164647265604082015261737360f01b606082015260800190565b6020808252601d908201527f45524332303a20696e73756666696369656e7420616c6c6f77616e6365000000604082015260600190565b60208082526026908201527f45524332303a207472616e7366657220616d6f756e7420657863656564732062604082015265616c616e636560d01b606082015260800190565b60208082526025908201527f45524332303a207472616e736665722066726f6d20746865207a65726f206164604082015264647265737360d81b606082015260800190565b60208082526024908201527f45524332303a20617070726f76652066726f6d20746865207a65726f206164646040820152637265737360e01b606082015260800190565b60208082526025908201527f45524332303a2064656372656173656420616c6c6f77616e63652062656c6f77604082015264207a65726f60d81b606082015260800190565b90815260200190565b60ff91909116815260200190565b60008219821115610b3c57634e487b7160e01b81526011600452602481fd5b500190565b600281046001821680610b5557607f821691505b60208210811415610b7657634e487b7160e01b600052602260045260246000fd5b5091905056fea26469706673582212203579b0799373b38ffe17c9828b20c2fecb09b7f80ad228baeaf67828c8920bf564736f6c63430008000033",
  "linkReferences": {},
  "deployedLinkReferences": {}
}